:100000000C9461000C947E000C947E000C947E0095
:100010000C947E000C947E000C947E000C947E0068
:100020000C947E000C947E000C947E000C947E0058
:100030000C947E000C947E000C947E000C947E0048
:100040000C9464010C947E000C947E000C947E0051
:100050000C947E000C947E000C947E000C947E0028
:100060000C947E000C947E00000000002400270009
:100070002A0000000000250028002B0000000000DE
:1000800023002600290004040404040404040202DA
:100090000202020203030303030301020408102007
:1000A0004080010204081020010204081020000012
:1000B0000007000201000003040600000000000029
:1000C000000011241FBECFEFD8E0DEBFCDBF11E08E
:1000D000A0E0B1E0E8EDF3E002C005900D92A4309D
:1000E000B107D9F711E0A4E0B1E001C01D92AF3033
:1000F000B107E1F70E9455010C94E7010C94000050
:100100008091000161E00E94CF008091020161E0D6
:100110000E94CF0008951F93109100018091040167
:100120000E942B01682F812F0E94F3001091020181
:10013000809104010E942B01682F812F0E94F300FF
:100140001F910895833071F0843028F48130A1F03C
:10015000823021F514C08630B1F08730D1F0843080
:10016000E9F404C0809180008F7703C08091800003
:100170008F7D80938000089584B58F7702C084B509
:100180008F7D84BD08958091B0008F778093B000FB
:1001900008958091B0008F7D8093B000089590E025
:1001A000FC01E656FF4F2491FC01EA57FF4FE49112
:1001B000EE23C1F0F0E0EE0FFF1FE859FF4F8591ED
:1001C0009491DC01662341F49FB7F8948C912095BB
:1001D00082238C939FBF08959FB7F8948C91822BB4
:1001E0008C939FBF08950F931F93DF93CF930F922C
:1001F000CDB7DEB7282F30E0F901E255FF4F8491EB
:10020000F901E656FF4F14912A573F4FF901049127
:100210000023D9F0882321F069830E94A20069811C
:10022000E02FF0E0EE0FFF1FEE58FF4F8591949105
:10023000DC019FB7F894662321F48C9110958123FB
:1002400002C08C91812B8C939FBF0F90CF91DF9137
:100250001F910F9108950F931F93282F30E0F901FC
:10026000E255FF4F8491F901E656FF4F04912A575A
:100270003F4FF9011491112391F0882311F00E944E
:10028000A200E12FF0E0EE0FFF1FE458FF4F859131
:100290009491DC018C91802321E030E011F420E086
:1002A00030E0C9011F910F910895CF93DF930E9411
:1002B000AC010E948000C0E0D0E00E948B0020973B
:1002C000E1F30E940000F9CF1F920F920FB60F9238
:1002D00011242F933F938F939F93AF93BF9380915C
:1002E0000A0190910B01A0910C01B0910D01309188
:1002F0000E010196A11DB11D232F2D5F2D3720F07A
:100300002D570196A11DB11D20930E0180930A0166
:1003100090930B01A0930C01B0930D018091060105
:1003200090910701A0910801B09109010196A11DCA
:10033000B11D8093060190930701A0930801B0932B
:100340000901BF91AF919F918F913F912F910F9094
:100350000FBE0F901F901895789484B5826084BD6D
:1003600084B5816084BD85B5826085BD85B58160B9
:1003700085BDEEE6F0E0808181608083E1E8F0E019
:100380001082808182608083808181608083E0E848
:10039000F0E0808181608083E1EBF0E08081846027
:1003A0008083E0EBF0E0808181608083EAE7F0E029
:1003B000808184608083808182608083808181608D
:1003C00080838081806880831092C1000895F894B2
:0803D0000C94EA01F894FFCF40
:0403D8000D00010013
:00000001FF
