:100000000C9464000C94F7000C9424010C948C0064
:100010000C948C000C948C000C948C000C94B50502
:100020000C948C000C948C000C948C000C948C0020
:100030000C948C000C948C000C948C000C948C0010
:100040000C9451010C948C000C94C1020C940F037D
:100050000C948C000C948C000C948C000C948C00F0
:100060000C948C000C948C000000000024002700ED
:100070002A0000000000250028002B0000000000DE
:1000800023002600290004040404040404040202DA
:100090000202020203030303030301020408102007
:1000A0004080010204081020010204081020000012
:1000B0000007000201000003040600000000000029
:1000C00000000200F4034A0411241FBECFEFD8E061
:1000D000DEBFCDBF11E0A0E0B1E0E4EBFCE002C088
:1000E00005900D92AC31B107D9F711E0ACE1B1E068
:1000F00001C01D92A43EB107E1F710E0C8ECD0E0CA
:1001000004C02297FE010E945406C43CD107C9F7DF
:100110000E949B040C948E000C940000F8940C94A4
:10012000580610921D0110921C011FC064E670E079
:1001300080E090E00E9499018091000160E00E94BF
:100140006C0264E670E080E090E00E94990180918A
:10015000000161E00E946C0280911C0190911D01E0
:10016000019690931D0180931C0180911C01909138
:100170001D010597DCF268EB7BE080E090E00E94D7
:10018000990110921F0110921E011FC06CE271E0D4
:1001900080E090E00E9499018091020160E00E945D
:1001A0006C026CE271E080E090E00E949901809125
:1001B000020161E00E946C0280911E0190911F017A
:1001C000019690931F0180931E0180911E019091D2
:1001D0001F010597DCF208958091000161E00E9403
:1001E0002D028091020161E00E942D0208951F926C
:1001F0000F920FB60F9211242F933F934F935F935B
:100200006F937F938F939F93AF93BF93EF93FF93DE
:100210008091200190912101892B29F0E09120010A
:10022000F09121010995FF91EF91BF91AF919F91BD
:100230008F917F916F915F914F913F912F910F908F
:100240000FBE0F901F9018951F920F920FB60F922E
:1002500011242F933F934F935F936F937F938F93CB
:100260009F93AF93BF93EF93FF938091220190915F
:100270002301892B29F0E0912201F09123010995B6
:10028000FF91EF91BF91AF919F918F917F916F916E
:100290005F914F913F912F910F900FBE0F901F9044
:1002A00018951F920F920FB60F9211242F933F9320
:1002B0008F939F93AF93BF938091280190912901D1
:1002C000A0912A01B0912B0130912C010196A11D22
:1002D000B11D232F2D5F2D3720F02D570196A11D25
:1002E000B11D20932C018093280190932901A093A4
:1002F0002A01B0932B018091240190912501A091B6
:100300002601B09127010196A11DB11D8093240102
:1003100090932501A0932601B0932701BF91AF913F
:100320009F918F913F912F910F900FBE0F901F9033
:1003300018959B01AC017FB7F894809124019091AE
:100340002501A0912601B091270166B5A89B05C0A3
:100350006F3F19F00196A11DB11D7FBFBA2FA92FC4
:10036000982F8827860F911DA11DB11D62E0880F6F
:10037000991FAA1FBB1F6A95D1F7BC012DC0FFB7FB
:10038000F8948091240190912501A0912601B091CB
:100390002701E6B5A89B05C0EF3F19F00196A11D06
:1003A000B11DFFBFBA2FA92F982F88278E0F911D3F
:1003B000A11DB11DE2E0880F991FAA1FBB1FEA957E
:1003C000D1F7861B970B885E9340C8F221503040CE
:1003D0004040504068517C4F211531054105510581
:1003E00071F60895789484B5826084BD84B5816087
:1003F00084BD85B5826085BD85B5816085BDEEE62D
:10040000F0E0808181608083E1E8F0E0108280810B
:1004100082608083808181608083E0E8F0E0808179
:1004200081608083E1EBF0E0808184608083E0EB99
:10043000F0E0808181608083EAE7F0E08081846081
:1004400080838081826080838081816080838081DD
:10045000806880831092C1000895CF93DF93482F66
:1004600050E0CA0186569F4FFC0134914A575F4FB6
:10047000FA018491882369F190E0880F991FFC01AB
:10048000E859FF4FA591B491FC01EE58FF4FC5917B
:10049000D491662351F42FB7F8948C91932F9095B3
:1004A00089238C93888189230BC0623061F42FB734
:1004B000F8948C91932F909589238C938881832B2A
:1004C00088832FBF06C09FB7F8948C91832B8C93A1
:1004D0009FBFDF91CF910895482F50E0CA01825508
:1004E0009F4FFC012491CA0186569F4FFC019491B5
:1004F0004A575F4FFA013491332309F440C0222355
:1005000051F1233071F0243028F42130A1F0223051
:1005100011F514C02630B1F02730C1F02430D9F4E1
:1005200004C0809180008F7703C0809180008F7D10
:100530008093800010C084B58F7702C084B58F7D12
:1005400084BD09C08091B0008F7703C08091B00056
:100550008F7D8093B000E32FF0E0EE0FFF1FEE5889
:10056000FF4FA591B4912FB7F894662321F48C9195
:100570009095892302C08C91892B8C932FBF08956D
:1005800008951F920F920FB60F9211242F933F934D
:100590004F938F939F93EF93FF938091C00082FDC1
:1005A0001DC04091C60020916D0130916E012F5FFA
:1005B0003F4F2F73307080916F0190917001281719
:1005C000390771F0E0916D01F0916E01E35DFE4F2E
:1005D000408330936E0120936D0102C08091C6006C
:1005E000FF91EF919F918F914F913F912F910F909C
:1005F0000FBE0F901F901895E091C101F091C201BC
:10060000E05CFF4F8191919120813181821B930B9E
:100610008F739070892B11F00E94C00208951F9271
:100620000F920FB60F9211242F933F938F939F93A6
:10063000EF93FF932091B1013091B2018091B3010A
:100640009091B4012817390731F48091C1008F7D52
:100650008093C10014C0E091B301F091B401EF5850
:10066000FE4F20818091B3019091B40101968F7368
:1006700090709093B4018093B3012093C600FF91D2
:10068000EF919F918F913F912F910F900FBE0F90FF
:100690001F901895DC011C96ED91FC911D97E05C74
:1006A000FF4F2191319180819181281B390B2F734C
:1006B0003070C9010895DC011C96ED91FC911D97E5
:1006C000E05CFF4F20813181E054F040DF01AE5B00
:1006D000BF4F8D919C9111972817390719F42FEF6F
:1006E0003FEF07C08D919C91E80FF91F8081282F63
:1006F00030E0C9010895DC011C96ED91FC911D9735
:10070000E05CFF4F20813181E054F040DF01AE5BBF
:10071000BF4F8D919C9111972817390719F42FEF2E
:100720003FEF10C08D919C911197E80FF91F208128
:100730008D919C91119701968F73907011969C9357
:100740008E9330E0C9010895DC0191968C919197C8
:10075000882339F05496ED91FC915597808186FF5E
:10076000F9CF91961C920895CF93DF93EC01EE851B
:10077000FF85E05CFF4F20813181E054F0402F5F26
:100780003F4F2F733070DF01AE5BBF4F8D919C9157
:10079000119728173907D1F3E05CFF4F80819181D1
:1007A000E054F040E80FF91F6083EE85FF85E05CC0
:1007B000FF4F31832083EE89FF89208181E090E023
:1007C0000F8C02C0880F991F0A94E2F7282B208310
:1007D00081E089A3EC89FD8980818064808381E048
:1007E00090E0DF91CF9108951092B8011092B70177
:1007F00088EE93E0A0E0B0E08093B9019093BA0155
:10080000A093BB01B093BC0189E091E09093B60145
:100810008093B5018DE291E09093C2018093C10174
:1008200081E791E09093C4018093C30185EC90E04F
:100830009093C6018093C50184EC90E09093C80129
:100840008093C70180EC90E09093CA018093C90126
:1008500081EC90E09093CC018093CB0182EC90E00E
:100860009093CE018093CD0186EC90E09093D001DF
:100870008093CF0184E08093D10183E08093D20103
:1008800087E08093D30185E08093D40181E0809359
:10089000D501089589E191E09093D8018093D70123
:1008A0001092D9011092DA011092DB011092DC0152
:1008B00008958F929F92AF92BF92CF92DF92EF9264
:1008C000FF920F931F93CF93DF934C016B017C0139
:1008D000AA24BB24C0E0D0E0C601F70162814AE04F
:1008E00050E00E946B058C01C6016EE20E94D404A8
:1008F000080F191FA00EB11E21960894E11CF11CCF
:10090000C330D10549F7C601F40165814AE050E0E2
:100910000E946B059501280F391FC901DF91CF9106
:100920001F910F91FF90EF90DF90CF90BF90AF900D
:100930009F908F900895CF93DF930E94F2010E94C1
:10094000EC00CCEFD2E00E9491002097E1F30E94EE
:10095000FC02F9CFCF92DF92EF92FF920F931F9399
:10096000CF93DF937C016B018A01C0E0D0E00FC020
:10097000D6016D916D01D701ED91FC910190F0814F
:10098000E02DC7010995C80FD91F0150104001156E
:10099000110571F7CE01DF91CF911F910F91FF905B
:1009A000EF90DF90CF900895DC01ED91FC910190E4
:1009B000F081E02D09950895CF93DF93EC01611547
:1009C000710519F420E030E00FC0DB010D9000202C
:1009D000E9F71197A61BB70BE881F9810280F38133
:1009E000E02DAD0109959C01C901DF91CF910895DA
:1009F0004F925F927F928F929F92AF92BF92CF92CF
:100A0000DF92EF92FF920F931F93DF93CF93CDB7B7
:100A1000DEB7A1970FB6F894DEBF0FBECDBF2C0195
:100A2000742ECB01223008F42AE019A231E2C32E41
:100A3000D12CCC0EDD1E822E9924AA24BB24672D36
:100A4000752FA50194010E94300679018A01C80121
:100A5000B701A50194010E941106472D461B089479
:100A6000C108D1084A3014F4405D01C0495CF60168
:100A70004083E114F1040105110521F07E2C5F2D66
:100A8000C801DDCFC201B6010E94DC04A1960FB6F9
:100A9000F894DEBF0FBECDBFCF91DF911F910F91B4
:100AA000FF90EF90DF90CF90BF90AF909F908F908E
:100AB0007F905F904F900895DC012115310541F43E
:100AC000ED91FC910190F081E02D642F099508953E
:100AD0000E94F8040895EF92FF920F931F939A01DA
:100AE000E62EFF2400E010E0B801A7010E945C059B
:100AF0001F910F91FF90EF900895813041F0813068
:100B000018F08230D1F409C010926E0008958091DF
:100B10006F008D7F80936F000895809170008D7FAE
:100B20008093700081E08093B0008091B100887F55
:100B300084608093B1001092B30008951F93182F22
:100B400080910401811711F09FEF06C0E2ECF0E004
:100B500094918FEF80930401892F0E947D05812F4E
:100B600060E00E946C021F9108951F920F920FB6D1
:100B70000F9211242F933F934F935F936F937F9323
:100B80008F939F93AF93BF93EF93FF938091DD017A
:100B90009091DE01A091DF01B091E0010097A105E5
:100BA000B10551F1E091E101F091E2018081909174
:100BB000E301892780838091DD019091DE01A0917E
:100BC000DF01B091E001181619061A061B06C4F4DD
:100BD0008091DD019091DE01A091DF01B091E001F3
:100BE0000197A109B1098093DD019093DE01A093E3
:100BF000DF01B093E00104C0809104010E949E05D2
:100C0000FF91EF91BF91AF919F918F917F916F91E4
:100C10005F914F913F912F910F900FBE0F901F90BA
:100C20001895629FD001739FF001829FE00DF11D26
:100C3000649FE00DF11D929FF00D839FF00D749F56
:100C4000F00D659FF00D9927729FB00DE11DF91F02
:100C5000639FB00DE11DF91FBD01CF01112408955F
:100C6000A1E21A2EAA1BBB1BFD010DC0AA1FBB1FB0
:100C7000EE1FFF1FA217B307E407F50720F0A21B22
:100C8000B30BE40BF50B661F771F881F991F1A948F
:100C900069F760957095809590959B01AC01BD01B9
:100CA000CF010895EE0FFF1F0590F491E02D0994F8
:040CB000F894FFCFE6
:100CB4000D000B00FF00000000B403AA044A037BEC
:0C0CC400035B03A40300000000590400BF
:00000001FF
