:100000000C9461000C947E000C947E000C947E0095
:100010000C947E000C947E000C947E000C947E0068
:100020000C947E000C947E000C947E000C947E0058
:100030000C947E000C947E000C947E000C947E0048
:100040000C9416010C947E000C947E000C947E009F
:100050000C947E000C947E000C947E000C947E0028
:100060000C947E000C947E00000000002400270009
:100070002A0000000000250028002B0000000000DE
:1000800023002600290004040404040404040202DA
:100090000202020203030303030301020408102007
:1000A0004080010204081020010204081020000012
:1000B0000007000201000003040600000000000029
:1000C000000011241FBECFEFD8E0DEBFCDBF11E08E
:1000D000A0E0B1E0E6E0F5E002C005900D92A030AE
:1000E000B107D9F711E0A0E0B1E001C01D92AD3039
:1000F000B107E1F70E946F020C947E020C9400009D
:10010000109201011092000110920301109202015D
:100110000895CF93DF93CFEFD0E011C00196909375
:10012000010180930001BE01681B790B8BE00E94E6
:10013000B60065E070E080E090E00E94840180916C
:100140000001909101018F3F910544F36FEF70E042
:10015000681B790B8BE00E94B60065E070E080E0E0
:1001600090E00E948401DF91CF9108951F93CF9377
:10017000DF93182FEB0161E00E941302209709F42E
:100180004AC0CF3FD10509F449C0E12FF0E0E25564
:10019000FF4FE491E330C1F0E43028F4E13051F056
:1001A000E230B1F50CC0E63019F1E73049F1E43046
:1001B00079F514C084B5806884BDC7BD33C084B5EB
:1001C000806284BDC8BD2EC080918000806880930D
:1001D0008000D0938900C093880024C08091800063
:1001E000806280938000D0938B00C0938A001AC0F5
:1001F0008091B00080688093B000C093B30012C0BB
:100200008091B00080628093B000C093B4000AC0B7
:10021000C038D1051CF4812F60E002C0812F61E05D
:100220000E943702DF91CF911F9108951F920F9284
:100230000FB60F9211242F933F938F939F93AF93F9
:10024000BF938091080190910901A0910A01B0919A
:100250000B0130910C010196A11DB11D232F2D5FC3
:100260002D3720F02D570196A11DB11D20930C01B3
:100270008093080190930901A0930A01B0930B01A8
:100280008091040190910501A0910601B0910701B0
:100290000196A11DB11D8093040190930501A093C7
:1002A0000601B0930701BF91AF919F918F913F914C
:1002B0002F910F900FBE0F901F9018959FB7F89435
:1002C00020910401309105014091060150910701F0
:1002D00086B5A89B06C08F3F21F02F5F3F4F4F4F41
:1002E0005F4F9FBF542F432F322F2227280F311DDE
:1002F000411D511D82E0220F331F441F551F8A9557
:10030000D1F7B901CA010895EF92FF920F931F939D
:10031000CF93DF937B018C010E945E01EB010FC044
:100320000E945E016C1B7D0B83E0683E780738F00D
:100330000894E108F10801091109C851DC4FE114E2
:10034000F1040105110561F7DF91CF911F910F9124
:10035000FF90EF900895789484B5826084BD84B551
:10036000816084BD85B5826085BD85B5816085BDB0
:10037000EEE6F0E0808181608083E1E8F0E01082C9
:10038000808182608083808181608083E0E8F0E00A
:10039000808181608083E1EBF0E0808184608083F4
:1003A000E0EBF0E0808181608083EAE7F0E080812B
:1003B000846080838081826080838081816080838B
:1003C0008081806880831092C1000895833071F02D
:1003D000843028F48130A1F0823021F514C08630B9
:1003E000B1F08730D1F08430E9F404C0809180000E
:1003F0008F7703C0809180008F7D80938000089567
:1004000084B58F7702C084B58F7D84BD08958091B7
:10041000B0008F778093B00008958091B0008F7DF9
:100420008093B000089590E0FC01E656FF4F2491C0
:10043000FC01EA57FF4FE491EE23C1F0F0E0EE0F2C
:10044000FF1FE859FF4F85919491DC01662341F429
:100450009FB7F8948C91209582238C939FBF089529
:100460009FB7F8948C91822B8C939FBF08950F9324
:100470001F93DF93CF930F92CDB7DEB7282F30E0D5
:10048000F901E255FF4F8491F901E656FF4F1491AF
:100490002A573F4FF90104910023D9F0882321F016
:1004A00069830E94E6016981E02FF0E0EE0FFF1FF3
:1004B000EE58FF4F85919491DC019FB7F894662325
:1004C00021F48C911095812302C08C91812B8C9307
:1004D0009FBF0F90CF91DF911F910F910895CF9300
:1004E000DF930E94AB010E948000C0E0D0E00E9438
:1004F00089002097E1F30E940000F9CFF8940C9452
:060500008102F894FFCF18
:00000001FF
