:100000000C9465000C94C9000C94F6000C948D00BF
:100010000C948D000C948D000C948D000C94DA05DA
:100020000C948D000C948D000C948D000C940E0893
:100030000C948D000C948D000C948D000C948D000C
:100040000C9423010C948D000C94E6020C94340360
:100050000C948D000C948D000C948D000C948D00EC
:100060000C948D000C948D000000000024002700EB
:100070002A0000000000250028002B0000000000DE
:1000800023002600290004040404040404040202DA
:100090000202020203030303030301020408102007
:1000A0004080010204081020010204081020000012
:1000B0000007000201000003040600000000000029
:1000C00000000200920019046F0411241FBECFEF3C
:1000D000D8E0DEBFCDBF11E0A0E0B1E0E6ECF2E198
:1000E00002C005900D92AA31B107D9F712E0AAE13A
:1000F000B1E001C01D92AB30B107E1F710E0CAECEE
:10010000D0E004C02297FE010E945D09C43CD107E3
:10011000C9F70E94C0040C948F000C940000F8945E
:100120000C9461098AE191E00E94CA0608958091C9
:1001300000010E949202892BE1F481EE91E00E947D
:1001400095068AE191E060E070E00E94200760E996
:1001500071E080E090E00E946B018AE191E06AE545
:1001600070E00E94200760E971E080E090E00E946A
:100170006B0181EE91E00E947F06089581EE91E08F
:100180000E94AB068AE191E069E070E00E940708F6
:1001900008951F920F920FB60F9211242F933F9341
:1001A0004F935F936F937F938F939F93AF93BF937F
:1001B000EF93FF9380911D0190911E01892B29F0EF
:1001C000E0911D01F0911E010995FF91EF91BF9102
:1001D000AF919F918F917F916F915F914F913F91DF
:1001E0002F910F900FBE0F901F9018951F920F9296
:1001F0000FB60F9211242F933F934F935F936F93FA
:100200007F938F939F93AF93BF93EF93FF938091CF
:100210001F0190912001892B29F0E0911F01F0919D
:1002200020010995FF91EF91BF91AF919F918F911F
:100230007F916F915F914F913F912F910F900FBEE2
:100240000F901F9018951F920F920FB60F921124C6
:100250002F933F938F939F93AF93BF9380912501EB
:1002600090912601A0912701B09128013091290198
:100270000196A11DB11D232F2D5F2D3720F02D5785
:100280000196A11DB11D2093290180932501909312
:100290002601A0932701B09328018091210190911C
:1002A0002201A0912301B09124010196A11DB11D4D
:1002B0008093210190932201A0932301B093240104
:1002C000BF91AF919F918F913F912F910F900FBE52
:1002D0000F901F9018959B01AC017FB7F894809107
:1002E000210190912201A0912301B091240166B5D2
:1002F000A89B05C06F3F19F00196A11DB11D7FBFDE
:10030000BA2FA92F982F8827860F911DA11DB11DE7
:1003100062E0880F991FAA1FBB1F6A95D1F7BC0125
:100320002DC0FFB7F8948091210190912201A091F6
:100330002301B0912401E6B5A89B05C0EF3F19F059
:100340000196A11DB11DFFBFBA2FA92F982F882795
:100350008E0F911DA11DB11DE2E0880F991FAA1FEC
:10036000BB1FEA95D1F7861B970B885E9340C8F2B6
:10037000215030404040504068517C4F211531059C
:100380004105510571F60895789484B5826084BD65
:1003900084B5816084BD85B5826085BD85B5816089
:1003A00085BDEEE6F0E0808181608083E1E8F0E0E9
:1003B0001082808182608083808181608083E0E818
:1003C000F0E0808181608083E1EBF0E080818460F7
:1003D0008083E0EBF0E0808181608083EAE7F0E0F9
:1003E000808184608083808182608083808181605D
:1003F00080838081806880831092C1000895CF93AC
:10040000DF93482F50E0CA0186569F4FFC0134917C
:100410004A575F4FFA018491882369F190E0880F71
:10042000991FFC01E859FF4FA591B491FC01EE58CA
:10043000FF4FC591D491662351F42FB7F8948C9156
:10044000932F909589238C93888189230BC06230E8
:1004500061F42FB7F8948C91932F909589238C9306
:100460008881832B88832FBF06C09FB7F8948C9117
:10047000832B8C939FBFDF91CF910895482F50E03D
:10048000CA0182559F4FFC012491CA0186569F4F95
:10049000FC0194914A575F4FFA013491332309F4D8
:1004A00040C0222351F1233071F0243028F4213050
:1004B000A1F0223011F514C02630B1F02730C1F080
:1004C0002430D9F404C0809180008F7703C08091DC
:1004D00080008F7D8093800010C084B58F7702C02C
:1004E00084B58F7D84BD09C08091B0008F7703C033
:1004F0008091B0008F7D8093B000E32FF0E0EE0F8D
:10050000FF1FEE58FF4FA591B4912FB7F8946623C3
:1005100021F48C919095892302C08C91892B8C9326
:100520002FBF0895682F70E0CB0182559F4FFC01CB
:100530002491CB0186569F4FFC0144916A577F4F0F
:10054000FB019491992319F420E030E03CC0222370
:1005500051F1233071F0243028F42130A1F0223001
:1005600011F514C02630B1F02730C1F02430D9F491
:1005700004C0809180008F7703C0809180008F7DC0
:100580008093800010C084B58F7702C084B58F7DC2
:1005900084BD09C08091B0008F7703C08091B00006
:1005A0008F7D8093B000892F90E0880F991F845829
:1005B0009F4FFC01A591B4918C9120E030E0842301
:1005C00011F021E030E0C901089508951F920F92C3
:1005D0000FB60F9211242F933F934F938F939F93B6
:1005E000EF93FF938091C00082FD1DC04091C60033
:1005F00020916A0130916B012F5F3F4F2F73307054
:1006000080916C0190916D012817390771F0E0918C
:100610006A01F0916B01E65DFE4F408330936B0100
:1006200020936A0102C08091C600FF91EF919F91D3
:100630008F914F913F912F910F900FBE0F901F9070
:100640001895E091BE01F091BF01E05CFF4F8191F0
:10065000919120813181821B930B8F739070892B34
:1006600011F00E94E50208951F920F920FB60F92AB
:1006700011242F933F938F939F93EF93FF93209198
:10068000AE013091AF018091B0019091B101281776
:10069000390731F48091C1008F7D8093C10014C06F
:1006A000E091B001F091B101E259FE4F20818091BB
:1006B000B0019091B10101968F7390709093B10148
:1006C0008093B0012093C600FF91EF919F918F918D
:1006D0003F912F910F900FBE0F901F901895DC0146
:1006E0001C96ED91FC911D97E05CFF4F219131919B
:1006F00080819181281B390B2F733070C9010895B7
:10070000DC011C96ED91FC911D97E05CFF4F208170
:100710003181E054F040DF01AE5BBF4F8D919C9181
:1007200011972817390719F42FEF3FEF07C08D9164
:100730009C91E80FF91F8081282F30E0C9010895AE
:10074000DC011C96ED91FC911D97E05CFF4F208130
:100750003181E054F040DF01AE5BBF4F8D919C9141
:1007600011972817390719F42FEF3FEF10C08D911B
:100770009C911197E80FF91F20818D919C91119701
:1007800001968F73907011969C938E9330E0C901FF
:100790000895DC0191968C919197882339F05496B5
:1007A000ED91FC915597808186FFF9CF91961C922F
:1007B0000895CF93DF93EC01EE85FF85E05CFF4F5A
:1007C00020813181E054F0402F5F3F4F2F73307014
:1007D000DF01AE5BBF4F8D919C91119728173907B0
:1007E000D1F3E05CFF4F80819181E054F040E80F4D
:1007F000F91F6083EE85FF85E05CFF4F3183208326
:10080000EE89FF89208181E090E00F8C02C0880F83
:10081000991F0A94E2F7282B208381E089A3EC89B1
:10082000FD8980818064808381E090E0DF91CF91B9
:1008300008951092B5011092B40188EE93E0A0E003
:10084000B0E08093B6019093B701A093B801B09344
:10085000B90187E091E09093B3018093B2018AE2FD
:1008600091E09093BF018093BE018EE691E090935A
:10087000C1018093C00185EC90E09093C301809307
:10088000C20184EC90E09093C5018093C40180EC98
:1008900090E09093C7018093C60181EC90E0909323
:1008A000C9018093C80182EC90E09093CB018093C2
:1008B000CA0186EC90E09093CD018093CC0184E056
:1008C0008093CE0183E08093CF0187E08093D001B5
:1008D00085E08093D10181E08093D201089587E182
:1008E00091E09093D5018093D4011092D60110929B
:1008F000D7011092D8011092D90108958F929F923A
:10090000AF92BF92CF92DF92EF92FF920F931F931D
:10091000CF93DF934C016B017C01AA24BB24C0E080
:10092000D0E0C601F70162814AE050E00E949005E4
:100930008C01C6016EE20E94F904080F191FA00E77
:10094000B11E21960894E11CF11CC330D10549F772
:10095000C601F40165814AE050E00E9490059501CE
:10096000280F391FC901DF91CF911F910F91FF907F
:10097000EF90DF90CF90BF90AF909F908F900895B1
:10098000CF93DF930E94C4010E94BE00C1E2D3E076
:100990000E9497002097E1F30E942103F9CFCF92A4
:1009A000DF92EF92FF920F931F93CF93DF937C011F
:1009B0006B018A01C0E0D0E00FC0D6016D916D01DE
:1009C000D701ED91FC910190F081E02DC7010995CF
:1009D000C80FD91F015010400115110571F7CE0144
:1009E000DF91CF911F910F91FF90EF90DF90CF900B
:1009F0000895DC01ED91FC910190F081E02D0995C5
:100A00000895CF93DF93EC016115710519F420E08F
:100A100030E00FC0DB010D900020E9F71197A61B15
:100A2000B70BE881F9810280F381E02DAD010995D2
:100A30009C01C901DF91CF9108954F925F927F92FF
:100A40008F929F92AF92BF92CF92DF92EF92FF92DE
:100A50000F931F93DF93CF93CDB7DEB7A1970FB658
:100A6000F894DEBF0FBECDBF2C01742ECB01223017
:100A700008F42AE019A231E2C32ED12CCC0EDD1EDF
:100A8000822E9924AA24BB24672D752FA5019401D9
:100A90000E941E0979018A01C801B701A5019401CC
:100AA0000E94CC08472D461B0894C108D1084A3043
:100AB00014F4405D01C0495CF6014083E114F10487
:100AC0000105110521F07E2C5F2DC801DDCFC2018B
:100AD000B6010E940105A1960FB6F894DEBF0FBEC5
:100AE000CDBFCF91DF911F910F91FF90EF90DF90DD
:100AF000CF90BF90AF909F908F907F905F904F90DE
:100B00000895DC012115310541F4ED91FC9101902E
:100B1000F081E02D642F099508950E941D05089528
:100B2000EF92FF920F931F939A01E62EFF2400E0AD
:100B300010E0B801A7010E9481051F910F91FF905D
:100B4000EF900895813041F0813018F08230D1F477
:100B500009C010926E00089580916F008D7F809380
:100B60006F000895809170008D7F8093700081E008
:100B70008093B0008091B100887F84608093B10041
:100B80001092B30008951F93182F809102018117CE
:100B900011F09FEF06C0E2ECF0E094918FEF8093AC
:100BA0000201892F0E94A205812F60E00E943E026F
:100BB0001F9108951F920F920FB60F9211242F9339
:100BC0003F934F935F936F937F938F939F93AF93D5
:100BD000BF93EF93FF938091DA019091DB01A09195
:100BE000DC01B091DD010097A105B10551F1E09163
:100BF000DE01F091DF0180819091E00189278083FF
:100C00008091DA019091DB01A091DC01B091DD01CE
:100C1000181619061A061B06C4F48091DA01909181
:100C2000DB01A091DC01B091DD010197A109B109BF
:100C30008093DA019093DB01A093DC01B093DD0196
:100C400004C0809102010E94C305FF91EF91BF9102
:100C5000AF919F918F917F916F915F914F913F9154
:100C60002F910F900FBE0F901F9018952F923F92CB
:100C70004F925F926F927F928F929F92AF92BF92AC
:100C8000CF92DF92EF92FF920F931F93DF93CF9358
:100C9000CDB7DEB73B014C0119012A016D897E8970
:100CA0008F89988D6A197B098C099D09621A730ACC
:100CB000840A950AA40193010E94CC08E218F30863
:100CC00004091509A80197010E9440092A0D3B1D3E
:100CD0004C1D5D1DB901CA01CF91DF911F910F918C
:100CE000FF90EF90DF90CF90BF90AF909F908F904C
:100CF0007F906F905F904F903F902F9008950F934B
:100D00001F938C01FC01808161E00E943E0264E639
:100D100070E080E090E00E946B01F801808160E06B
:100D20000E943E021F910F9108950F931F938C0113
:100D3000FC01808161E00E943E0264E670E080E098
:100D400090E00E946B01F801808160E00E943E0209
:100D50001F910F9108950F931F938C018EE061E016
:100D60000E94FF018FE061E00E94FF0180E161E0ED
:100D70000E94FF0181E161E00E94FF018EE0F80125
:100D800080838FE0818380E1828381E183831F916F
:100D90000F910895FC018091E5018C3090F48083DF
:100DA0008F5F8093E501815090E0FC01EE0FFF1F03
:100DB000E80FF91FEA51FE4F88EB9BE09283818395
:100DC00008958FEF80830895FC0120812C30B8F5C1
:100DD0008181992787FD909548E850E0481B590B81
:100DE000440F551F440F551F6417750784F0828107
:100DF000992787FD909548E552E0481B590B440F11
:100E0000551F440F551F641775070CF4AB01425072
:100E10005040CA01AA2797FDA095BA2F880F991FA5
:100E2000AA1FBB1F4FB7F89430E0F901EE0FFF1F68
:100E3000E20FF31FEA51FE4F928381834FBF089563
:100E4000AF92BF92CF92DF92EF92FF920F931F93D8
:100E5000CF93DF93EC019B0182E0603278070CF0C6
:100E600048C077FF03C020E030E005C0653B710556
:100E700014F024EB30E000D000D0B901882777FDD2
:100E80008095982F2981332727FD3095E8E8AE2EED
:100E9000B12CA21AB30AAA0CBB1CAA0CBB1CCC24F2
:100EA000B7FCC094DC2CEA81FF27E7FDF09528E52C
:100EB00032E02E1B3F0B220F331F220F331F44271C
:100EC00037FD4095542FEDB7FEB72183328343831E
:100ED000548320E030E040E050E004EBE02EF12CC1
:100EE000012D112D0E9436069B010F900F900F903F
:100EF0000F90CE01B9010E94E406DF91CF911F91BE
:100F00000F91FF90EF90DF90CF90BF90AF9008953A
:100F1000CF92DF92EF92FF921F93CF93DF93EC017A
:100F2000162F7A01690188818C3008F064C0862F01
:100F300061E00E94FF01888190E0FC01EE0FFF1F3D
:100F4000E80FF91FEA51FE4F1F738081807C812BCF
:100F5000808380E292E08E199F0964E070E00E9435
:100F60000B09698380E699E08C199D0964E070E0C3
:100F70000E940B096A83A8818A2F6CE00E94EB080B
:100F8000682F70E0AB01440F551F460F571F440FE9
:100F9000551F440F551F20E030E0C901840F951FF5
:100FA000FC01EE0FFF1FE80FF91FEA51FE4F808191
:100FB00086FD15C02F5F3F4F2C30310571F724C0DF
:100FC0001092800082E08093810010928500109240
:100FD0008400B19A80916F00826080936F008A2FA5
:100FE00090E0FC01EE0FFF1FE80FF91FEA51FE4FE2
:100FF0008081806480838881DF91CF911F91FF90F1
:10100000EF90DF90CF900895672BD1F2E8CF40E2C8
:1010100052E020E639E00E94880708951F920F925F
:101020000FB60F9211242F933F934F935F936F93BB
:101030007F938F939F93AF93BF93EF93FF93809191
:101040000A0287FF05C010928500109284002BC011
:1010500020910A02332727FD30958091E50190E029
:101060002817390704F580910A02992787FD909582
:10107000FC01EE0FFF1FE80FF91FEA51FE4F8081C0
:1010800086FF11C080910A02992787FD9095FC0187
:10109000EE0FFF1FE80FF91FEA51FE4F80818F739B
:1010A00060E00E943E0280910A028F5F80930A02F4
:1010B00020910A02332727FD30958091E50190E0C9
:1010C000281739070CF04EC080910A028C300CF0C2
:1010D00049C0209184003091850080910A029927AF
:1010E00087FD9095FC01EE0FFF1FE80FF91FEA51F5
:1010F000FE4F81819281280F391F30938900209300
:10110000880080910A02992787FD9095FC01EE0FD7
:10111000FF1FE80FF91FEA51FE4F808186FF2BC0A9
:1011200080910A02992787FD9095FC01EE0FFF1F21
:10113000E80FF91FEA51FE4F80818F7361E00E9432
:101140003E0219C080E49CE905C080918400909122
:101150008500049690938900809388008FEF809398
:101160000A0209C080918400909185000496805401
:101170009C4940F3EACFFF91EF91BF91AF919F91CE
:101180008F917F916F915F914F913F912F910F9030
:101190000FBE0F901F901895629FD001739FF001B2
:1011A000829FE00DF11D649FE00DF11D929FF00DF7
:1011B000839FF00D749FF00D659FF00D9927729F2E
:1011C000B00DE11DF91F639FB00DE11DF91FBD01B9
:1011D000CF0111240895991B79E004C0991F961737
:1011E00008F0961B881F7A95C9F780950895AA1B69
:1011F000BB1B51E107C0AA1FBB1FA617B70710F002
:10120000A61BB70B881F991F5A95A9F78095909533
:10121000BC01CD01089597FB092E07260AD077FD62
:1012200004D0E5DF06D000201AF4709561957F4F59
:101230000895F6F7909581959F4F0895A1E21A2E93
:10124000AA1BBB1BFD010DC0AA1FBB1FEE1FFF1F6A
:10125000A217B307E407F50720F0A21BB30BE40BBA
:10126000F50B661F771F881F991F1A9469F7609501
:101270007095809590959B01AC01BD01CF010895BB
:1012800097FB092E05260ED057FD04D0D7DF0AD0D4
:10129000001C38F450954095309521953F4F4F4FA5
:1012A0005F4F0895F6F790958095709561957F4F03
:1012B0008F4F9F4F0895EE0FFF1F0590F491E02D83
:0612C0000994F894FFCF31
:1012C6000400FF00000000D903CF046F03A00380D1
:0A12D60003C903000000007E0400BD
:00000001FF
