:100000000C9462000C948A000C948A000C948A0070
:100010000C948A000C948A000C948A000C948A0038
:100020000C948A000C948A000C948A000C943E0371
:100030000C948A000C948A000C948A000C948A0018
:100040000C94AC010C948A000C948A000C948A00E5
:100050000C948A000C948A000C948A000C948A00F8
:100060000C948A000C948A000000000024002700F1
:100070002A0000000000250028002B0000000000DE
:1000800023002600290004040404040404040202DA
:100090000202020203030303030301020408102007
:1000A0004080010204081020010204081020000012
:1000B0000007000201000003040600000000000029
:1000C0000000820111241FBECFEFD8E0DEBFCDBFFC
:1000D00011E0A0E0B1E0EEE2FCE002C005900D927C
:1000E000AE30B107D9F711E0AEE0B1E001C01D922A
:1000F000A934B107E1F710E0C4ECD0E004C02297C6
:10010000FE010E941106C23CD107C9F70E942F03CD
:100110000C947D050C9400008091000161E00E9428
:10012000A9028091020161E00E94A902809104016C
:1001300061E00E94A9028091060161E00E94A9028B
:100140008EE091E069E070E00E94950481E191E029
:1001500068E070E00E9495040895809114010E9467
:100160000503009709F060C0109217011092160164
:1001700053C08091000160E00E94CD028091020195
:1001800061E00E94CD028091040161E00E94CD02F5
:1001900068EC70E080E090E00E941A02809100011B
:1001A00061E00E94CD028091020160E00E94CD02D8
:1001B00068EC70E080E090E00E941A0280910201F9
:1001C00061E00E94CD028091040160E00E94CD02B6
:1001D00068EC70E080E090E00E941A0280910001DB
:1001E00061E00E94CD028091020161E00E94CD0297
:1001F0008091040161E00E94CD0268EC70E080E033
:1002000090E00E941A0280911601909117010196C8
:100210009093170180931601809116019091170118
:10022000853091050CF4A5CF809108010E9405034B
:100230000097C1F48EE091E06AE570E00E94D0047E
:1002400060E971E080E090E00E941A028EE091E0A7
:1002500060E070E00E94D00460E971E080E090E02E
:100260000E941A0280910A010E948B018138910537
:100270000CF442C08091000160E00E94CD02109217
:1002800019011092180131C081E191E060E070E045
:100290000E94D00462E370E080E090E00E941A02C5
:1002A0008091060160E00E94CD026CED75E080E077
:1002B00090E00E941A028091060161E00E94CD0246
:1002C00081E191E06CE370E00E94D0046CED75E098
:1002D00080E090E00E941A0280911801909119012B
:1002E00001969093190180931801809118019091C3
:1002F00019018330910544F28091000161E00E9470
:10030000CD0208958EE091E00E94FC0381E191E02E
:100310000E94FC0308958E3008F08E5087709091F3
:100320000C019295990F990F907C982B90937C00DB
:1003300080917A00806480937A0080917A0086FDB3
:10034000FCCF2091780030917900932F80E030E04D
:10035000282B392BC90108951F920F920FB60F92C7
:1003600011242F933F938F939F93AF93BF938091CB
:100370001E0190911F01A0912001B09121013091A7
:1003800022010196A11DB11D232F2D5F2D3720F0D5
:100390002D570196A11DB11D2093220180931E01AE
:1003A00090931F01A0932001B093210180911A0125
:1003B00090911B01A0911C01B0911D010196A11DFE
:1003C000B11D80931A0190931B01A0931C01B0935F
:1003D0001D01BF91AF919F918F913F912F910F90F0
:1003E0000FBE0F901F9018959FB7F89420911A0197
:1003F00030911B0140911C0150911D0186B5A89BB5
:1004000006C08F3F21F02F5F3F4F4F4F5F4F9FBF81
:10041000542F432F322F2227280F311D411D511DEC
:1004200082E0220F331F441F551F8A95D1F7B9016F
:10043000CA010895EF92FF920F931F93CF93DF931A
:100440007B018C010E94F401EB010FC00E94F401BA
:100450006C1B7D0B83E0683E780738F00894E10858
:10046000F10801091109C851DC4FE114F10401053B
:10047000110561F7DF91CF911F910F91FF90EF90E0
:100480000895789484B5826084BD84B5816084BD0C
:1004900085B5826085BD85B5816085BDEEE6F0E0FD
:1004A000808181608083E1E8F0E010828081826059
:1004B0008083808181608083E0E8F0E080818160DA
:1004C0008083E1EBF0E0808184608083E0EBF0E00A
:1004D000808181608083EAE7F0E0808184608083AE
:1004E0008081826080838081816080838081806858
:1004F00080831092C1000895833071F0843028F415
:100500008130A1F0823021F514C08630B1F08730FF
:10051000D1F08430E9F404C0809180008F7703C06B
:10052000809180008F7D80938000089584B58F77BF
:1005300002C084B58F7D84BD08958091B0008F770F
:100540008093B00008958091B0008F7D8093B000BB
:10055000089590E0FC01E656FF4F2491FC01EA5714
:10056000FF4FE491EE23C1F0F0E0EE0FFF1FE859DA
:10057000FF4F85919491DC01662341F49FB7F89475
:100580008C91209582238C939FBF08959FB7F894F8
:100590008C91822B8C939FBF08950F931F93DF93B1
:1005A000CF930F92CDB7DEB7282F30E0F901E25597
:1005B000FF4F8491F901E656FF4F14912A573F4FA0
:1005C000F90104910023D9F0882321F069830E9466
:1005D0007C026981E02FF0E0EE0FFF1FEE58FF4F25
:1005E00085919491DC019FB7F894662321F48C9156
:1005F0001095812302C08C91812B8C939FBF0F900B
:10060000CF91DF911F910F9108950F931F93282F82
:1006100030E0F901E255FF4F8491F901E656FF4FB2
:1006200004912A573F4FF9011491112391F0882327
:1006300011F00E947C02E12FF0E0EE0FFF1FE45862
:10064000FF4F85919491DC018C91802321E030E073
:1006500011F420E030E0C9011F910F910895CF936C
:10066000DF930E9441020E948C00C0E0D0E00E9413
:10067000AD002097E1F30E940000F9CF1F920F9286
:100680000FB60F9211242F933F934F935F936F9365
:100690007F938F939F93AF93BF93EF93FF9380913B
:1006A000480187FF05C010928500109284002BC07E
:1006B00020914801332727FD30958091230190E058
:1006C0002817390704F580914801992787FD9095EF
:1006D000FC01EE0FFF1FE80FF91FEC5DFE4F80815C
:1006E00086FF11C080914801992787FD9095FC01F4
:1006F000EE0FFF1FE80FF91FEC5DFE4F80818F7337
:1007000060E00E94CD02809148018F5F8093480194
:1007100020914801332727FD30958091230190E0F7
:10072000281739070CF04EC0809148018C300CF02E
:1007300049C0809184009091850020914801332721
:1007400027FD3095F901EE0FFF1FE20FF31FEC5D5F
:10075000FE4F21813281820F931F909389008093F5
:10076000880080914801992787FD9095FC01EE0F44
:10077000FF1FE80FF91FEC5DFE4F808186FF2BC045
:1007800080914801992787FD9095FC01EE0FFF1F8E
:10079000E80FF91FEC5DFE4F80818F7361E00E94CE
:1007A000CD0219C080E49CE905C08091840090913D
:1007B0008500049690938900809388008FEF809342
:1007C000480109C080918400909185002CE984340F
:1007D000920740F3EACFFF91EF91BF91AF919F91C4
:1007E0008F917F916F915F914F913F912F910F90DA
:1007F0000FBE0F901F901895FC01809123018C3043
:1008000090F480838F5F80932301808190E0FC01CE
:10081000EE0FFF1FE80FF91FEC5DFE4F88EB9BE02A
:100820009283818308958FEF80830895DF92EF9202
:10083000FF920F931F93CF93DF93EC01D62E8A0183
:10084000790188818C3008F064C0862F61E00E94B5
:10085000A9024881842F90E0FC01EE0FFF1FE80FF2
:10086000F91FEC5DFE4F9D2D9F738081807C892B4D
:10087000808380E292E0801B910B24E030E0B9019C
:100880000E94AB05698380E699E08E199F09B90142
:100890000E94AB056A83842F6CE00E949F0590E064
:1008A0009C01220F331F280F391F220F331F220FE5
:1008B000331F40E050E0BA01620F731FFB01EE0FDF
:1008C000FF1FE60FF71FEC5DFE4F608166FD15C050
:1008D0004F5F5F4F4C30510571F724C0109280007C
:1008E00082E0809381001092850010928400B19A7A
:1008F00080916F00826080936F00888190E0FC019E
:10090000EE0FFF1FE80FF91FEC5DFE4F8081806442
:1009100080838881DF91CF911F910F91FF90EF909D
:10092000DF9008950097D1F2E8CF40E252E020E650
:1009300039E00E9416040895FC0120812C3078F5DE
:100940004181552747FD509588E890E0841B950B21
:10095000880F991F880F991F6817790784F04281C3
:10096000552747FD509588E592E0841B950B880F2D
:10097000991F880F991F681779070CF4CB014FB79F
:10098000F89430E0F901EE0FFF1FE20FF31FEC5D6A
:10099000FE4F0297880F991F928381834FBF08955E
:1009A000AF92BF92CF92DF92EF92FF920F931F937D
:1009B000CF93DF93EC0182E0603278070CF046C001
:1009C00077FD04C0653B710524F405C060E070E06C
:1009D00002C064EB70E000D000D0882777FD8095DE
:1009E000982F4981552747FD509528E830E0241B72
:1009F000350B220F331F220F331F5901CC24B7FCB4
:100A0000C094DC2C4A81552747FD509528E532E0FB
:100A1000241B350B220F331F220F331F442737FDB2
:100A20004095542FEDB7FEB721833283438354831F
:100A300020E030E0A901B4EBEB2EF12C012D112DBB
:100A40000E9434050F900F900F900F90CE010E94DE
:100A50009C04DF91CF911F910F91FF90EF90DF9059
:100A6000CF90BF90AF9008952F923F924F925F9298
:100A70006F927F928F929F92AF92BF92CF92DF92AE
:100A8000EF92FF920F931F93DF93CF93CDB7DEB713
:100A90003B014C0119012A016D897E898F89988D4E
:100AA0006A197B098C099D09621A730A840A950ADE
:100AB000A40193010E948005E218F30804091509B6
:100AC000A80197010E94BE052A0D3B1D4C1D5D1D0E
:100AD000B901CA01CF91DF911F910F91FF90EF9063
:100AE000DF90CF90BF90AF909F908F907F906F904E
:100AF0005F904F903F902F900895F8940C941506B6
:100B0000629FD001739FF001829FE00DF11D649FF1
:100B1000E00DF11D929FF00D839FF00D749FF00D7D
:100B2000659FF00D9927729FB00DE11DF91F639F1E
:100B3000B00DE11DF91FBD01CF0111240895991BCE
:100B400079E004C0991F961708F0961B881F7A95C4
:100B5000C9F78095089597FB092E07260AD077FDDF
:100B600004D027D006D000201AF4709561957F4FED
:100B70000895F6F7909581959F4F089597FB092E5C
:100B800005260ED057FD04D028D00AD0001C38F41A
:100B900050954095309521953F4F4F4F5F4F0895A9
:100BA000F6F790958095709561957F4F8F4F9F4F89
:100BB0000895AA1BBB1B51E107C0AA1FBB1FA617A4
:100BC000B70710F0A61BB70B881F991F5A95A9F7F6
:100BD00080959095BC01CD010895A1E21A2EAA1B23
:100BE000BB1BFD010DC0AA1FBB1FEE1FFF1FA217DD
:100BF000B307E407F50720F0A21BB30BE40BF50BDA
:100C0000661F771F881F991F1A9469F76095709562
:100C1000809590959B01AC01BD01CF010895EE0F29
:0E0C2000FF1F0590F491E02D0994F894FFCF8A
:0E0C2E000D000B000C00070004000100010087
:00000001FF
