:100000000C9464000C94D8000C9405010C948C00A2
:100010000C948C000C948C000C948C000C94F605C1
:100020000C948C000C948C000C948C000C948C0020
:100030000C948C000C948C000C948C000C948C0010
:100040000C9492010C948C000C9402030C945003B9
:100050000C948C000C948C000C948C000C948C00F0
:100060000C948C000C948C000000000024002700ED
:100070002A0000000000250028002B0000000000DE
:1000800023002600290004040404040404040202DA
:100090000202020203030303030301020408102007
:1000A0004080010204081020010204081020000012
:1000B0000007000201000003040600000000000029
:1000C0000000020035048B0411241FBECFEFD8E0DE
:1000D000DEBFCDBF11E0A0E0B1E0E6E3FDE002C08D
:1000E00005900D92A831B107D9F711E0A8E1B1E070
:1000F00001C01D92AE3DB107E1F710E0C8ECD0E0C1
:1001000004C02297FE010E949506C43CD107C9F79E
:100110000E94DC040C948E000C940000F8940C9463
:10012000990610921901109218010895CF93DF9348
:10013000CFEFD0E011C00196909319018093180180
:10014000BE01681B790B8BE00E94320168E070E011
:1001500080E090E00E94DA018091180190911901ED
:100160008F3F910544F312C001979093190180933A
:100170001801BE01681B790B8BE00E94320168E018
:1001800070E080E090E00E94DA0102C0CFEFD0E0A2
:100190008091180190911901823091052CF768EC3B
:1001A00070E080E090E00E94DA01DF91CF91089545
:1001B0001F920F920FB60F9211242F933F934F93DC
:1001C0005F936F937F938F939F93AF93BF93EF93BF
:1001D000FF9380911A0190911B01892B29F0E091E6
:1001E0001A01F0911B010995FF91EF91BF91AF9119
:1001F0009F918F917F916F915F914F913F912F913F
:100200000F900FBE0F901F9018951F920F920FB670
:100210000F9211242F933F934F935F936F937F938C
:100220008F939F93AF93BF93EF93FF9380911C01A4
:1002300090911D01892B29F0E0911C01F0911D0185
:100240000995FF91EF91BF91AF919F918F917F9110
:100250006F915F914F913F912F910F900FBE0F9033
:100260001F9018951F93CF93DF93182FEB0161E038
:100270000E946E02209709F44AC0CF3FD10509F4CD
:1002800049C0E12FF0E0E255FF4F84918330C1F087
:10029000843028F4813051F08230B1F50CC08630C2
:1002A00019F1873049F1843079F514C084B580683C
:1002B00084BDC7BD33C084B5806284BDC8BD2EC0B7
:1002C00080918000806880938000D0938900C093E3
:1002D000880024C080918000806280938000D09349
:1002E0008B00C0938A001AC08091B0008068809310
:1002F000B000C093B30012C08091B00080628093C0
:10030000B000C093B4000AC0C038D1051CF4812FDE
:1003100060E002C0812F61E00E94AD02DF91CF91C9
:100320001F9108951F920F920FB60F9211242F93D1
:100330003F938F939F93AF93BF93809122019091AE
:100340002301A0912401B09125013091260101964D
:10035000A11DB11D232F2D5F2D3720F02D570196A4
:10036000A11DB11D209326018093220190932301AA
:10037000A0932401B093250180911E0190911F014B
:10038000A0912001B09121010196A11DB11D809382
:100390001E0190931F01A0932001B0932101BF91F2
:1003A000AF919F918F913F912F910F900FBE0F9022
:1003B0001F9018959B01AC017FB7F89480911E01A6
:1003C00090911F01A0912001B091210166B5A89BD9
:1003D00005C06F3F19F00196A11DB11D7FBFBA2F57
:1003E000A92F982F8827860F911DA11DB11D62E0AE
:1003F000880F991FAA1FBB1F6A95D1F7BC012DC09A
:10040000FFB7F89480911E0190911F01A0912001E7
:10041000B0912101E6B5A89B05C0EF3F19F0019608
:10042000A11DB11DFFBFBA2FA92F982F88278E0FAE
:10043000911DA11DB11DE2E0880F991FAA1FBB1FCE
:10044000EA95D1F7861B970B885E9340C8F221503E
:1004500030404040504068517C4F211531054105E6
:10046000510571F60895789484B5826084BD84B591
:10047000816084BD85B5826085BD85B5816085BD9F
:10048000EEE6F0E0808181608083E1E8F0E01082B8
:10049000808182608083808181608083E0E8F0E0F9
:1004A000808181608083E1EBF0E0808184608083E3
:1004B000E0EBF0E0808181608083EAE7F0E080811A
:1004C000846080838081826080838081816080837A
:1004D0008081806880831092C1000895CF93DF935C
:1004E000482F50E0CA0186569F4FFC0134914A576D
:1004F0005F4FFA018491882369F190E0880F991F7A
:10050000FC01E859FF4FA591B491FC01EE58FF4F53
:10051000C591D491662351F42FB7F8948C91932F01
:10052000909589238C93888189230BC0623061F474
:100530002FB7F8948C91932F909589238C93888171
:10054000832B88832FBF06C09FB7F8948C91832B91
:100550008C939FBFDF91CF910895482F50E0CA013F
:1005600082559F4FFC012491CA0186569F4FFC0182
:1005700094914A575F4FFA013491332309F440C0F4
:10058000222351F1233071F0243028F42130A1F0DE
:10059000223011F514C02630B1F02730C1F02430DC
:1005A000D9F404C0809180008F7703C080918000CF
:1005B0008F7D8093800010C084B58F7702C084B592
:1005C0008F7D84BD09C08091B0008F7703C080917A
:1005D000B0008F7D8093B000E32FF0E0EE0FFF1F9F
:1005E000EE58FF4FA591B4912FB7F894662321F4EC
:1005F0008C919095892302C08C91892B8C932FBF6D
:10060000089508951F920F920FB60F9211242F9301
:100610003F934F938F939F93EF93FF938091C000ED
:1006200082FD1DC04091C600209167013091680194
:100630002F5F3F4F2F7330708091690190916A0155
:100640002817390771F0E0916701F0916801E95DC1
:10065000FE4F4083309368012093670102C0809170
:10066000C600FF91EF919F918F914F913F912F91F4
:100670000F900FBE0F901F901895E091BB01F09165
:10068000BC01E05CFF4F8191919120813181821BFF
:10069000930B8F739070892B11F00E9401030895C2
:1006A0001F920F920FB60F9211242F933F938F93A7
:1006B0009F93EF93FF932091AB013091AC01809118
:1006C000AD019091AE012817390731F48091C10036
:1006D0008F7D8093C10014C0E091AD01F091AE0117
:1006E000E559FE4F20818091AD019091AE010196B8
:1006F0008F7390709093AE018093AD012093C600EC
:10070000FF91EF919F918F913F912F910F900FBE8D
:100710000F901F901895DC011C96ED91FC911D9790
:10072000E05CFF4F2191319180819181281B390B31
:100730002F733070C9010895DC011C96ED91FC9176
:100740001D97E05CFF4F20813181E054F040DF01D4
:10075000AE5BBF4F8D919C9111972817390719F403
:100760002FEF3FEF07C08D919C91E80FF91F80811B
:10077000282F30E0C9010895DC011C96ED91FC9111
:100780001D97E05CFF4F20813181E054F040DF0194
:10079000AE5BBF4F8D919C9111972817390719F4C3
:1007A0002FEF3FEF10C08D919C911197E80FF91F2B
:1007B00020818D919C91119701968F739070119665
:1007C0009C938E9330E0C9010895DC0191968C9141
:1007D0009197882339F05496ED91FC91559780813B
:1007E00086FFF9CF91961C920895CF93DF93EC0189
:1007F000EE85FF85E05CFF4F20813181E054F040C1
:100800002F5F3F4F2F733070DF01AE5BBF4F8D9175
:100810009C91119728173907D1F3E05CFF4F808135
:100820009181E054F040E80FF91F6083EE85FF8569
:10083000E05CFF4F31832083EE89FF89208181E0D6
:1008400090E00F8C02C0880F991F0A94E2F7282BC2
:10085000208381E089A3EC89FD8980818064808385
:1008600081E090E0DF91CF9108951092B201109253
:10087000B10188EE93E0A0E0B0E08093B3019093E3
:10088000B401A093B501B093B60185E091E09093D7
:10089000B0018093AF0187E291E09093BC01809317
:1008A000BB018BE691E09093BE018093BD0185EC86
:1008B00090E09093C0018093BF0184EC90E090930E
:1008C000C2018093C10180EC90E09093C4018093B9
:1008D000C30181EC90E09093C6018093C50182EC46
:1008E00090E09093C8018093C70186EC90E09093CC
:1008F000CA018093C90184E08093CB0183E0809397
:10090000CC0187E08093CD0185E08093CE0181E02A
:100910008093CF01089585E191E09093D201809377
:10092000D1011092D3011092D4011092D5011092EE
:10093000D60108958F929F92AF92BF92CF92DF928D
:10094000EF92FF920F931F93CF93DF934C016B01B4
:100950007C01AA24BB24C0E0D0E0C601F70162817B
:100960004AE050E00E94AC058C01C6016EE20E9494
:100970001505080F191FA00EB11E21960894E11C41
:10098000F11CC330D10549F7C601F40165814AE085
:1009900050E00E94AC059501280F391FC901DF9175
:1009A000CF911F910F91FF90EF90DF90CF90BF906C
:1009B000AF909F908F900895CF93DF930E94330262
:1009C0000E949100CDE3D3E00E9496002097E1F3CE
:1009D0000E943D03F9CFCF92DF92EF92FF920F93E7
:1009E0001F93CF93DF937C016B018A01C0E0D0E0BD
:1009F0000FC0D6016D916D01D701ED91FC91019071
:100A0000F081E02DC7010995C80FD91F0150104092
:100A10000115110571F7CE01DF91CF911F910F9153
:100A2000FF90EF90DF90CF900895DC01ED91FC9165
:100A30000190F081E02D09950895CF93DF93EC01AB
:100A40006115710519F420E030E00FC0DB010D9055
:100A50000020E9F71197A61BB70BE881F981028006
:100A6000F381E02DAD0109959C01C901DF91CF9182
:100A700008954F925F927F928F929F92AF92BF9212
:100A8000CF92DF92EF92FF920F931F93DF93CF935A
:100A9000CDB7DEB7A1970FB6F894DEBF0FBECDBFBE
:100AA0002C01742ECB01223008F42AE019A231E285
:100AB000C32ED12CCC0EDD1E822E9924AA24BB2459
:100AC000672D752FA50194010E94710679018A0195
:100AD000C801B701A50194010E945206472D461B8B
:100AE0000894C108D1084A3014F4405D01C0495C43
:100AF000F6014083E114F1040105110521F07E2C7B
:100B00005F2DC801DDCFC201B6010E941D05A1966F
:100B10000FB6F894DEBF0FBECDBFCF91DF911F910E
:100B20000F91FF90EF90DF90CF90BF90AF909F908C
:100B30008F907F905F904F900895DC0121153105D3
:100B400041F4ED91FC910190F081E02D642F099525
:100B500008950E9439050895EF92FF920F931F9315
:100B60009A01E62EFF2400E010E0B801A7010E94E0
:100B70009D051F910F91FF90EF900895813041F0F6
:100B8000813018F08230D1F409C010926E000895BF
:100B900080916F008D7F80936F0008958091700029
:100BA0008D7F8093700081E08093B0008091B100D0
:100BB000887F84608093B1001092B30008951F93E2
:100BC000182F80910001811711F09FEF06C0E2EC11
:100BD000F0E094918FEF80930001892F0E94BE0571
:100BE000812F60E00E94AD021F9108951F920F9225
:100BF0000FB60F9211242F933F934F935F936F93F0
:100C00007F938F939F93AF93BF93EF93FF938091C5
:100C1000D7019091D801A091D901B091DA01009744
:100C2000A105B10551F1E091DB01F091DC0180817A
:100C30009091DD01892780838091D7019091D8011F
:100C4000A091D901B091DA01181619061A061B06EF
:100C5000C4F48091D7019091D801A091D901B091AD
:100C6000DA010197A109B1098093D7019093D801C6
:100C7000A093D901B093DA0104C0809100010E94D1
:100C8000DF05FF91EF91BF91AF919F918F917F9180
:100C90006F915F914F913F912F910F900FBE0F90E9
:100CA0001F901895629FD001739FF001829FE00D05
:100CB000F11D649FE00DF11D929FF00D839FF00DDB
:100CC000749FF00D659FF00D9927729FB00DE11D87
:100CD000F91F639FB00DE11DF91FBD01CF01112464
:100CE0000895A1E21A2EAA1BBB1BFD010DC0AA1F6D
:100CF000BB1FEE1FFF1FA217B307E407F50720F085
:100D0000A21BB30BE40BF50B661F771F881F991FFF
:100D10001A9469F760957095809590959B01AC0148
:100D2000BD01CF010895EE0FFF1F0590F491E02D56
:060D30000994F894FFCFC6
:100D3600FF00000000F503EB048B03BC039C03E5F6
:080D460003000000009A040004
:00000001FF
